:020000040800F2
:10000000C0110024090C000821360008F50B000877
:10001000F50B0008F50B0008F50B000800000000C8
:10002000000000000000000000000000C90C0008F3
:10003000F50B000800000000690C0008D52000083E
:10004000410E0008410E0008410E0008410E000854
:10005000410E0008410E0008410E0008410E000844
:10006000410E0008410E0008410E0008410E000834
:10007000410E0008410E0008410E0008410E000824
:1002980053B94AB9002908BF00281CBF4FF0FF31E5
:1002A8004FF0FF3000F00CB8ADF1080C6DE904CE4A
:1002B80000F008F8DDF804E0DDE9022304B0704737
:1002C800704700BF2DE9F04786468C460846089ED1
:1002D800154674461946002B40F0C2808542B2FA92
:1002E80082F245D94AB1C2F1200300FA02FC2EFA83
:1002F80003F3954043EA0C0C94404FEA154EA8B21C
:10030800BCFBFEF8230C0EFB18CC08FB00F943EAF3
:100318000C43994528D9EB1808F1FF3704D29945C1
:1003280002D9A8F102072B44A3EB0903A4B2B3FB3B
:10033800FEFC0EFB1C330CFB00F044EA0344A04215
:1003480014D92C190CF1FF3304D2A04202D9ACF114
:1003580002032C44241A43EA07401EB1D440002368
:1003680034607360BDE8F0874746DDE76346F1E730
:1003780092BB431B01214FEA154EAFB2B3FBFEFC03
:10038800200C0EFB1C330CFB07F840EA034398458E
:1003980062D9EB180CF1FF3004D2984502D9ACF1C0
:1003A80002002B44A3EB0803A4B2B3FBFEFC0EFB34
:1003B8001C330CFB07F744EA0344A7424ED92C1917
:1003C8000CF1FF3304D2A74202D9ACF102032C444A
:1003D800E41B43EA0040C0E7C2F1200320FA03F11E
:1003E800954090402EFA03F303434FEA154EAFB2FF
:1003F800B1FBFEFC0EFB1C10190C0CFB07F841EAC4
:100408000041884504FA02F422D969180CF1FF303A
:1004180004D2884502D9ACF102002944A1EB0801B5
:100428009BB2B1FBFEFC0EFB1C110CFB07F743EA69
:1004380001439F420ED9EB180CF1FF3104D29F42C1
:1004480002D9ACF102012B44DB1B41EA004192E7DF
:100458006046E3E76146F7E76046A3E76346B7E728
:10046800834206D916B9002108467BE7C6E900E0B1
:10047800F9E7B3FA83F78FB9834201D3724508D8F5
:10048800BEEB020460EB030301209C461EB9002169
:1004980068E73846FAE7C6E9004CF8E7C7F1200CE8
:1004A800BB4022FA0CF41C432EFA0CF120FA0CF390
:1004B800B84001434FEA14490EFA07F5B3FBF9F8BF
:1004C8001FFA84FE09FB18300B0C08FB0EFA43EAEE
:1004D80000439A4502FA07F240D9E31808F1FF30C1
:1004E80004D29A4502D9A8F102002344A3EB0A03D7
:1004F80089B2B3FBF9F809FB183308FB0EFE41EA91
:1005080003418E452CD9611808F1FF3304D28E457A
:1005180002D9A8F10203214443EA0040A0FB029853
:10052800A1EB0E014145CE46434602D306D14D45C7
:1005380004D2B9EB020E68EB04030138002EA6D0F2
:10054800B5EB0E0261EB030101FA0CFC22FA07F38A
:100558004CEA0303F940C6E9003198E74046C5E78D
:100568004346D9E7F8B5174D284603F0E6FA04469E
:1005780030B32A692846A968136843F48053136086
:10058800114A0B680C219847002819DB0F4F104EB1
:10059800AB684FF4805128465B69984700280FDB09
:1005A80084F001040B4814F0FF0414BF39463146A7
:1005B80002F0CEFC002142F2107003F03CFBE7E7AA
:1005C8000020F8BD643F000801000600BA47000893
:1005D800BD470008C1470008014B1B68184700BF0A
:1005E80000000024014B1860704700BF0000002481
:1005F80030B585B004460D4610220021684603F048
:1006080093FB02232A4621468DF802306846034BA5
:10061800019302F0AFFC05B030BD00BFE105000852
:1006280080B505460E461746984602F00DFADFF8E3
:100638002090034603F0E4FB0446424649F80030A4
:1006480039463046A84754F8090000F0F3FA00BFCD
:1006580008000000054B00205A6822F002025A6088
:100668005A6822F001025A60704700BF0010005C0F
:10067800164B82B0D3F8E02042F00072C3F8E020B5
:10068800D3F8E02002F000720192019AD3F8F42026
:1006980042F00202C3F8F420D3F8F42002F0020278
:1006A8000092009A0A4AD2F80423D20706D503F525
:1006B8000053D3F89030002002B07047D3F8A02040
:1006C80042F00802C3F8A020F5E700BF0044025832
:1006D800000400580C4B0D4A1A600D4AD36823F0E9
:1006E8003F0343F00403D3600A4B1A6841F2030343
:1006F800B3EB124F06D1084AD2F8083143F0010390
:10070800C2F80831704700BF240000240090D003CD
:10071800004802580010005C00800051014B036043
:1007280002207047FC45000838B505460C4699B1CB
:100738001048D1E90123096802F05CFFE1680E481E
:10074800D4E9042302F056FFE1690C4802F052FF95
:10075800A1690B4802F04EFF012D05D1EFF3058189
:100768000848103902F046FF21462846BDE83840BF
:1007780001F0F2BD1C4800084C4800087C480008FD
:100788008C480008BB48000830BFFFF7FDBF00BF1A
:100798002DE9F0410B4E0546DFF82C80324606EB7A
:1007A8000807CC1B0949204603F0B0FAA019083CF9
:1007B8004246002103F0B8FA07F108002C67BDE8AB
:1007C800F08100BF0000000004000000B8450008E8
:1007D800054B5A699B689A4204D0044A536843F00F
:1007E80080535360704700BFAC03002400ED00E065
:1007F8002DE9F843324D804632488946174602F0C3
:10080800F9FEAB6ADE0622D511242F4802F0F2FE6B
:10081800AB6A1D0703D512242C4802F0EBFE284DC5
:10082800AB6A980715D52A4802F0E4FE6E6BAB6AEE
:10083800190642D53146274802F0DCFEB9F1000F0F
:1008480003D0AB6A23F08003AB62132403E01024C7
:10085800DEE76FF015061A4DAB6ADA0703D51424E4
:100868001D4802F0C7FEAB6A9B0603D515241B483A
:1008780002F0C0FE124B9A6AD50602D49A6A900713
:100888000AD55B68190507D54146304600F08EFA4F
:1008980010B180F309880224094B9A6A920603D59D
:1008A8005A6A22F400525A629A6A204642F0FF02BB
:1008B8009A6200233B70BDE8F8836FF01506C4E721
:1008C80000ED00E0CF480008E64800081A49000893
:1008D8002E490008474900085E4900087E4900087B
:1008E80010B51D4C1D4802F085FEA36A990130D54C
:1008F8001B4802F07FFE1E20A36ADA0103D51948BF
:1009080002F078FE1F20144CA36A1B0303D5164877
:1009180002F070FE2120A36A590303D5134802F0A0
:1009280069FE22200C4CA36A9A0303D5104802F0F2
:1009380061FE2320A36ADB0303D50E4802F05AFEAA
:100948002420054A936A6FEA03436FEA13439362CC
:1009580010BD1D20D0E700BF00ED00E0AE49000843
:10096800C7490008DB490008F6490008154A00088D
:100978003B4A0008564A000870B5244C06462448ED
:100988000D4602F037FEA36AD90435D5214802F096
:1009980031FE1720A36A1A0503D51F4802F02AFE64
:1009A80018201A4CA36A9B050FD51C4802F022FE9A
:1009B800A16BA36A180407D5194802F01BFE1EB1E3
:1009C800A36A23F40043A3621920104CA36A5905B3
:1009D80003D5144802F00EFE1A20A36ADA050DD5D5
:1009E800114802F007FE1B20084A936A43F47F432C
:1009F800936200232B7070BD1620CBE7A36A9B047B
:100A0800F2D50A4802F0F6FD1C20EDE700ED00E003
:100A1800824A0008994A00081A490008AB4A0008A7
:100A2800C54A0008DB4A0008F74A00087E49000862
:100A38005D4B2DE9F0415F688AB004460025C7F395
:100A4800080685F31188BFF36F8F02F07F43B3F177
:100A58007F4F06D102F00C03082B13D1534802F044
:100A6800C9FD00252C464FF00008F31E8DF80780BD
:100A7800092B00F28780DFE803F00A7B7F77858502
:100A88008585858310074CBF0C460125EBE7464E4C
:100A9800474802F0AFFD8DF80780F36A9A0704D53E
:100AA800444802F0A7FD002330E0F36A002B01DA86
:100AB8004148F6E7F36A5B00F5D5404802F09AFD35
:100AC8007369A26943F480737361BFF34F8FBFF3F7
:100AD8006F8F736932F8022C23F480737361BFF34C
:100AE8004F8FBFF36F8F4DF602739A4209D0B36AE6
:100AF800DBB25BB30DF1070201212046FFF778FE58
:100B080034E021682E4802F075FD23689DF807201F
:100B1800CAB902AE04F120072068083454F8041C4E
:100B28003246BC4203C21646F6D1099AB5B3C2F39F
:100B3800080121B96FEA52226FEA4222099202A9FA
:100B48001846FFF7F1FD0AB0BDE8F081B36A13F467
:100B58007F4F05D00DF107010120FFF70DFF05E0DC
:100B6800B36AB3F5803F9ED3FFF7BAFE0346CDE7DD
:100B78000DF107020021C0E70DF107010020ECE7A5
:100B880010488EE717F4F87F0F4B1049A6F11002B2
:100B980018BF19460E4802F02DFD84E722F4FF72B3
:100BA80022F00102CAE700BF00ED00E03E4B00085A
:100BB8006A4B0008824B0008A44B0008B34B00089E
:100BC800D34B0008F04B0008254B0008104B0008D9
:100BD800154C0008044B5A6942F010025A615A69D0
:100BE80022F008025A61704700ED00E0EFF3088038
:100BF800EFF3098101B57246FFF71AFF01BD00BF87
:100C08000A4880F30888102080F3118808484FF4B8
:100C18000461401880F30988EFF314800221084327
:100C280080F31488BFF36F8F00F08EF8C011002492
:100C380000040024084B9B6883420BD1EFF3058323
:100C480043B1064B5A6842F080525A605A6A22F4FD
:100C580000425A6201F0FEBEAC03002400ED00E041
:100C680014498A684FF030001044EFF3098C80E88B
:100C7800F01F102080F31288BFF36F8F0E4F4FF0D4
:100C880000664A698A603E60106F0C4C2060506FA5
:100C98000023536780F3118804B5104600F0EAF882
:100CA800BDE8044002F1300090E8F01F8CF3098899
:100CB80070470000AC03002404ED00E02802002483
:100CC8001EF0040F0CBFEFF30880EFF30980816971
:100CD80011F8021C0229FFD001B5724602F098FCF7
:100CE80001BD00BF00B2002807DB0123410900F065
:100CF8001F00024A834042F82130704700E100E0BB
:100D080000B2013100284FEA0111C9B206DB00F137
:100D1800604000F5614080F80013704700F00F0054
:100D2800014B1954704700BF14ED00E0044B054A0D
:100D380023F07F039360BFF34F8FBFF36F8F70472C
:100D48000000000800ED00E008B5FFF7EFFF0B4AD0
:100D5800D2F8883023F47003C2F88830EFF3148394
:100D680023F0040383F31488BFF36F8F01F084FB2F
:100D780001F096FF00F054F801F0C2FB00ED00E02E
:100D880042F8203C203A009B07495360019B21F020
:100D980001019360029B9161D3604FF08073D3612E
:100DA800002302654367704729060008094A03467D
:100DB800906870B113F1160F006E05D0A0F14002D3
:100DC8009A4205D8834203D2814228BF0020704747
:100DD80000207047AC03002415460C4A0E4608B59F
:100DE8000B4B9060026F1A6000F044F82C4686F3B3
:100DF80009880020034B9847204600210022002341
:100E0800014C20473D36000829060008AC030024A1
:100E180028020024014B10221A61704700ED00E0FF
:100E2800002304481021C2180133962B82F80013BE
:100E3800F9D1704700E100E008B5EFF30583064AF1
:100E4800103B02EBC30152F8330049688847BDE8FC
:100E58000840FFF7BDBC00BFA4400008024B0121B9
:100E6800024A034800F076B8000008240000002475
:100E78001C460008026E4021044B403A18461A608E
:100E8800034AC3E90112012100F06EB82C020024C4
:100E980000000B15084AC2F898000B6823F01F03DE
:100EA800034343F01003C2F89C308B6843F00103FE
:100EB800C2F8A030704700BF00ED00E02DE9F04314
:100EC8000E4685B01F4604464FF00009DFF85480EF
:100ED800B14523DA6068D8B13FB1411E08421BD141
:100EE8001F2819D92368194216D12368019302F0E3
:100EF800B5FBA3680343D0B20393D8F89050C5F369
:100F08000725013DA84207D801A9FFF7C3FF421CE6
:100F180009F101090C34DBE76FF01502104605B042
:100F2800BDE8F08300ED00E0044B0522C3F89420EF
:100F3800BFF34F8FBFF36F8F704700BF00ED00E026
:100F4800BFF35F8F024B0022C3F89420704700BFA5
:100F580000ED00E010B5034C01232278FFF7AEFF47
:100F6800207010BDD80300240B4A08B5002312785E
:100F7800FFF7A4FF10F1160F07D0084A0021D2F896
:100F88009030C3F30723984200DB08BDC2F89800ED
:100F98000130C2F8A010F2E7D803002400ED00E009
:100FA800544B2DE9F043544C85B0D3F89030256864
:100FB800C3F307239D4200F29A8000200C26FFF716
:100FC800BFFF85421AD14D4C68464D4F2570FFF73B
:100FD800A5FB00250646DFF81C81DFF82891AE4204
:100FE80013D1237800204349D1F89020C2F3072277
:100FF800934276DB0020FFF797FF42E0616806FB2B
:101008000011FFF747FF0130DBE700984FEA051CA6
:1010180000EB0511CB683B40B3F5000F48D00AD868
:10102800B3F5001F30D0B3F5800F36D0B3F5801F6D
:1010380010D00135D3E7B3F1807F42D0B3F1007F00
:10104800F7D150F80C30886802F008FB4A6840F481
:10105800802009E050F80C30886802F0FFFA40F070
:1010680088504A6840F4302003902078CDE9012365
:10107800D8F89030C3F30723013B98422AD96FF080
:10108800150005B0BDE8F08350F80C30886802F010
:10109800E5FA4A6840EA0900E6E750F80C30886843
:1010A80002F0DCFA40F0C0604A6840F40030DBE748
:1010B80050F80C30886802F0D1FA4A6840F0827023
:1010C800D2E750F80C30886802F0C8FA4A6840F055
:1010D8008870C9E701A9FFF7DDFE23780133237083
:1010E800A7E7C1F898300133C1F8A0007CE74FF0BA
:1010F800FF30C6E700ED00E0B8450008D80300243B
:101108000000F0FF0000081108B5024B1B68984763
:10111800002008BD38020024034B044A1860937865
:1011280043F002039370704738020024040000243F
:101138000649074821F00701C1F1105208B502F528
:10114800002202F0FDF9002008BD00BF07120024AC
:101158003C020024044B03EB40000023013320F839
:10116800022B9942FADC7047340000242DE9F84339
:1011780006464FF00009114F4FF00108347854FA31
:1011880089F5284600F02CF970B1284600F04EF990
:1011980057F8353043B14C4407EBC50504F01F043C
:1011A800696808FA04F0984709F1010972785FFA4A
:1011B80089F39A42E2D2BDE8F88300BF48020024CE
:1011C8004FF48013094A0A4910B5D2F8A40088429E
:1011D8000BD0581CF9D0013BF7D183F31188BFF32A
:1011E8006F8F0424204602DFEFE710BD0064025829
:1011F80000030080034680B1B0FA80F2C2F11F02FA
:10120800D2B2074931F912004FF0B042D2F880103B
:101218000B43C2F88030FFF765BDFF22F1E700BF3E
:101228003400002438B50D460446FFF7C9FF032DE6
:101238000DD8DFE805F0021116204FF0B0431A6808
:1012480022EA04021A605A6822EA04025A600E4B23
:101258004FF440725A6238BD4FF0B0431A682243C7
:10126800F0E74FF0B0435A6822435A601A6822EAFE
:1012780004021A60EBE74FF0B0431A6822431A6081
:101288005A6814435C60E2E70064025830B5B0B1B4
:10129800B0FA80F3C3F11F03DBB20B4850F83340B8
:1012A8008C4204D100EBC3056D68954205D044B962
:1012B80040F8331000EBC3004260002030BDFF232C
:1012C800EBE76FF00F00F9E74802002460B1B0FACD
:1012D80080F3C3F11F03DBB2044A002142F8331044
:1012E80002EBC30251607047FF23F5E74802002470
:1012F80038B500F003030F250C4604339B009D40CE
:1013080045EA9005FFF75CFF05F003032A0C92FA03
:10131800A2F29B00B2FA82F203F1B04302F01F027C
:10132800D3F8081494404FF4407221EA15410C4355
:10133800C3F80844014B5A6238BD00BF0064025824
:1013480000F003020F23043292009340094A43EA53
:10135800900000F00303023352F82320030C93FAA1
:10136800A3F3B3FA83F302EA104003F01F03D84053
:10137800704700BF000400584FF48013094A0A4917
:1013880010B5D2F8A40088420BD0581CF9D0013B04
:10139800F7D183F31188BFF36F8F0424204602DF4F
:1013A800EFE710BD006402580003008013B50B4C32
:1013B800204602F0C2FB58B10223F422CDE90023F3
:1013C800A3681B683BB169462046984702B010BD28
:1013D8006FF01200FAE76FF05700F7E7C43E000815
:1013E8005F2838B505461CD800F01F0301249C402F
:1013F800FFF7C2FF1F2D4FF0B0430AD8D3F888304B
:101408009C434FF44072084B0CBF012000205A62E5
:1014180038BD3F2D02D8D3F89830F1E7D3F8A8307B
:10142800EEE70020F4E700BF0064025838B55F28F3
:1014380000F01F034FF00105044605FA03F515D81F
:10144800FFF79AFF1F2C4FF0B04307D8C3F8885016
:10145800084B4FF4407200205A6238BD3F2C02D826
:10146800C3F89850F4E7C3F8A850F1E76FF01500F7
:10147800F3E700BF00640258064B1B6903F038030A
:10148800102B05D0182B044818BF002040087047BF
:101498000248FBE7004402580084D71740787D01D2
:1014A8002F4B10B518680B88C3F30B030D2B2BD8E3
:1014B80013B96FF0850026E0013B0C2BF9D801A089
:1014C80050F823F03D15000801150008BB1400086A
:1014D8005715000843150008BB140008BB14000882
:1014E800471500084B150008471500084F15000858
:1014F8005315000843150008002010600B68B3F569
:10150800805F26D2002010BDD42B0FD003F628739D
:10151800C3F30B031C2BCCD8012404FA03F3114C9E
:10152800234205D140F211142342C2D04008E4E717
:101538008008E2E7FFF7A0FFDFE70B48DDE70B488D
:10154800DBE70B48D9E70B48D7E70B48D5E70B484B
:10155800D3E7C3F313330133B0FBF3F01060D1E7E3
:101568002400002400101111006CDC020084D7173D
:1015780000C2EB0B001C4E0E000E270740787D01C1
:101588004FF48013094A0A4910B5D2F88C008842F2
:101598000BD0581CF9D0013BF7D183F31188BFF366
:1015A8006F8F0424204602DFEFE710BD0064025865
:1015B8000003008010B50B880C4603F62C73C3F3A8
:1015C8000B03202B13D8FFF7DBFF2388616800206B
:1015D800C3F30B0303F1B04303F511331A6822EA8E
:1015E80001021A604FF44072024BDA6010BD6FF0CE
:1015F8008500FBE70064025813B50B880C4603F618
:101608002C73C3F30B03202B1DD8FFF7B9FF2388D6
:1016180061680020C3F30B0303F1B04303F51133F2
:101628001A680A431A604FF440722388C3F30B0305
:1016380003F1B04303F511331B680193019B034B7E
:10164800DA6002B010BD6FF08500FAE70064025856
:1016580073B5954CD4F8E03043F00073C4F8E0302B
:10166800D4F8E03003F000730193019BFFF788FF83
:10167800236823F480232360236843F480332360A2
:1016880023689A03FCD52368874A43F48053236070
:1016980013689B04FCD5854B9A6942F440429A61D1
:1016A8009A699604FCD5804B1A6902F03802182A08
:1016B80016D11A68550706D41A6842F001021A6052
:1016C8001A685407FCD5784B1A6922F007021A6188
:1016D8001A6912F0380FFBD19A6922F00F029A6149
:1016E800714B1A6822F080721A601A6822F08062C0
:1016F8001A601A6822F080521A609A6A22F003026D
:1017080042F002029A629A6A22F47C7242F0500213
:101718009A62DA6A22F00C0242F00802DA62DA6AA5
:1017280022F00202DA621A6B22F4FF7222F001023E
:1017380042F09F021A63DA6A22F00102DA621A6B37
:1017480022F47E4242F400721A63DA6A42F480326A
:10175800DA621A6B22F4FE0242F440321A63DA6A41
:1017680042F40032DA621A6B22F0FE4242F08072D2
:101778001A63DA6A42F48022DA621A6842F08072E6
:101788001A601A689001FCD59A6A474C22F47C3298
:1017980042F4A0429A62DA6A22F0C00242F0800261
:1017A800DA62DA6A22F02002DA629A6B22F4FF72B5
:1017B80022F0010242F05F029A63DA6A22F0100214
:1017C800DA629A6B22F47E4242F400729A63DA6A11
:1017D80042F40022DA629A6B22F4FE0242F44032AA
:1017E8009A63DA6A42F48012DA629A6B22F0FE4255
:1017F80042F010629A63DA6A42F40012DA621A68F6
:1018080042F080621A6023681901FCD5284EFFF760
:1018180033FE0546B04202D8264800F023FDA369EE
:10182800214A23F47063A361A36923F00F0343F0F3
:101838000803A361E36923F0700343F04003E36105
:10184800E36923F4E06343F48063E361A36923F06D
:10185800700343F04003A361236A23F0700343F04D
:1018680040032362236923F0070343F00303236142
:10187800136903F03803182BFAD1B54202D90D4881
:1018880000F0F0FC094B9A6942F440429A619A6967
:101898009204FCD5084B4FF440720020DA60074BE5
:1018A800074A1A6002B070BD004402580048025846
:1018B800FFC1EB0B00C2EB0B0064025824000024AC
:1018C8000084D71710B508880C46C0F30B0001F048
:1018D80031FF002826DB4B68FF2B22D0FFF750FE94
:1018E800626893B2C2F38450C2F3054203F1B04375
:1018F80000FA02F203F51133196821EA02021A60AC
:1019080061688BB2CA0EC1F3054103F1B0438A4046
:1019180003F51133186802431A604FF44072024B02
:10192800DA60002010BD00BF0064025808B50748FF
:1019380002F003F938B10648FFF7EEFB0448FEF75A
:1019480051FE002008BD6FF01200FBE7844000083C
:101958005D1900080A2838B50446074D04D1AB685C
:101968000D2128465B689847AB68E1B202485B687E
:101978009847204638BD00BF844000082DE9F84349
:10198800D0F804801746D0F810900D46D8F8080013
:101998001E4601F0C1FEB7F5001F044616D1D8F85F
:1019A80008402846FFF7CCFC84420CD1294601F0B8
:1019B800B3FE044601F0B5FE2046FFF787FC002180
:1019C8002046FFF72FFC0020BDE8F883B7F5800F0D
:1019D80020D0B6F1806F19D0B6F1C06F18D0B6F12B
:1019E800007F1AD102264A460F492046FFF74EFCCF
:1019F800B0B9D8F808102846FFF77AFC20463146D7
:101A0800FFF710FC2046FFF7F5FBDCE70126EAE7C5
:101A18000326E8E76FF08500D6E76FF01500D3E7F7
:101A28006FF00F00D0E700BFA73800084FF480130D
:101A3800094A0A4910B5D2F8A00088420BD0581CB0
:101A4800F9D0013BF7D183F31188BFF36F8F0424DA
:101A5800204602DFEFE710BD006402580003008053
:101A680038B543680C465D68FFF7E0FF4FF44072F5
:101A780000206B6963406B61014B1A6238BD00BF7F
:101A88000064025870B543680D4614465E68FFF757
:101A9800CDFF4FF44072002073695C402C405C40DD
:101AA800014B74611A6270BD006402582DE9F84355
:101AB800164645680124884602F0300799468C404E
:101AC800FFF7B4FF6A68C6F38013C6F3C111C6F303
:101AD800412622EA040203FA08F3202F43EA02030C
:101AE80004FA08F26B6002EB4200D5F808C002FB6A
:101AF80001F102FB06F66FEA00032CEA000C41EA4A
:101B08000C01A960E96821EA000146EA0106EE60D5
:101B18000FD1B8F1070F18D802FA08F1286A01FAAC
:101B280008F1C1EB011401FB09F120EA04000143AB
:101B3800296229683F090B4057434FF440721F43FD
:101B4800094B2F601A62BDE8F883240A696A644366
:101B58006443C4EB041004FB09F921EA000141EADB
:101B680009016962E5E700BF0064025838B50369F6
:101B7800044658600A4D284601F0DFFF60B1AB68A3
:101B880061681B680C3123B12846984700EAE07069
:101B980038BD6FF05700F9E76FF01200F8E700BFA3
:101BA800C43E00082DE9F047044600EBC1060025B5
:101BB8001C4FB44201D1002014E02068C30600F095
:101BC8001F0911D4656845F02005C0F3481AC0F311
:101BD8004420102823D857F82080B8F1000F0DD1E1
:101BE8006FF01200BDE8F087B9F1100F04D0B9F119
:101BF800110FEAD16568E8E73025E6E7404601F0CD
:101C08009CFF0028ECD04B462A460AF00F014046BC
:101C180001F05BFE002804F10804CADAE2E76FF07D
:101C28001500DFE708470008F8B50C460369416866
:101C38005D682379012B15D09F1E7E427E41B60236
:101C48006279022A96BF444F4FF4005737F8127052
:101C5800A279022A09D0042A2FD0003B18BF0123F9
:101C68001B0306E04FF4C066EAE7B3FA83F35B09A7
:101C78001B07E2790968012A14BF4FF0000C4FF4E2
:101C8800407CA5421CD10A6822F0805222F4B0524E
:101C980032431A430A604B6823F440533B434B607A
:101CA80043681A68936823F4407343EA0C0393600B
:101CB8002968BDE8F84001F0AEBE4FF48053D8E77C
:101CC800D1F800E00EF4C06E764506D0D1F800E0F9
:101CD8002EF4C06E4EEA06060E6041680E68716802
:101CE80001F440518F4204D0716821F440513943C6
:101CF800716041680E68316801F010218B4204D090
:101D0800316821F010210B433360436819688B68F0
:101D180003F440739C4505D08B6823F4407343EA71
:101D28000C038B6043681B689968490405D5032A2E
:101D380009D09A6822F4804204E0032A03D19A6801
:101D480042F480429A6021682B68994203D001F0DE
:101D580062FE23682B60F8BDB4470008F7B5064655
:101D6800446805695A48286001F0E7FE002800F039
:101D7800A4802868E16883681B68002B00F0A180B4
:101D880098470028C0F29B8001AA0021206A01F030
:101D9800B4FD0028C0F29380019B002219791868CD
:101DA800FFF700FF0028C0F28A80756833692C6845
:101DB8005F68236823F001032360686801F0BDFEB3
:101DC80000287AD0D5E901018368DB6803B1984718
:101DD80054E8003F43F00C0344E80032002AF7D1EE
:101DE80039463046FFF720FF2B7D1BB1A36843F02F
:101DF8000803A3606B7D1BB1636843F40043636011
:101E0800AB7D1BB1636843F480336360EB7D1BB12A
:101E1800636843F4003363602B7E002B3BD02D4B6B
:101E28009C421ED0A3F54C439C421AD003F5806314
:101E38009C4216D003F580639C4212D003F5806360
:101E48009C420ED003F544439C420AD0A3F51C43A0
:101E58009C4206D003F580639C4202D01E4B9C42F4
:101E680032D173681A68936843F480439360236897
:101E78006A7E23F0787343EA425323602368AA7E7C
:101E880023F4F81343EA02432360EB7E1BB1A368F3
:101E980043F40043A3602B7F1BB1236843F0005336
:101EA8002360236843F001032360E3699A02FCD5A9
:101EB800E3695B02FCD5002001E06FF0120003B07B
:101EC800F0BD6FF05700FAE76FF01500F7E700BFB5
:101ED800C43E000800100140000C0058F8B54368E3
:101EE80002460E4691F805E01C68036908795D68AA
:101EF80001288B791FD1BEF1020F76D9022B1F461C
:101F08004FF4C0614FF4005C00F08780042B7FD051
:101F180020B1C31E012B7DD94FF48050BCF5805FE2
:101F280000F08580BCF5405F00F08380BCF1000FB5
:101F38001CD101231BE002280AD1BEF1020F60D98F
:101F4800022B1F464FF480610BD04FF4005CDDE795
:101F5800BEF1020F58D9022B1F4657D1002862D074
:101F68000021C31E012B55D90020022703237345E6
:101F780050D101F00EFDB8424CD1F3791BB3012BBF
:101F880059D12E4B9C421ED0A3F54C439C421AD0EB
:101F980003F580639C4216D003F580639C4212D0FF
:101FA80003F580639C420ED003F544439C420AD05B
:101FB800A3F51C439C4206D003F580639C4202D0E3
:101FC8001F4B9C4226D123683146104623F001035B
:101FD8002360FFF729FE236843F00103236096E896
:101FE800030085E803000020F8BD4FF4C061154FD9
:101FF800022B37F81EC01F4688D170B94FF08050A9
:102008008CE74FF48061F2E70021F0E700219CE7BC
:10201800002881D06FF08500E6E7C31E012BF9D9AF
:10202800022700207AE701464FF080509EE7002300
:102038009DE702239BE7032BA3D0EBE700100140A9
:10204800000C0058B44700084FF0E0230F4910B5C2
:102058009C691A6908689B6902F480320C4934B992
:1020680093B903464AB90A681044C01A10BD002B38
:1020780008BF03460AB9A342F5D90A6802440A60B0
:102088004FF0E0221269EEE70446F3E7A8030024C4
:10209800A40300240A4B1022002083F8232049F6C9
:1020A8004042084B1A6049F63F42074B18604FF010
:1020B800E0235A6198611A6942F007021A61704771
:1020C80000ED00E0A8030024A4030024684620F0E3
:1020D80007018D4619B5FFF7B7FF1149114B08687D
:1020E800D3E90042001942F10002C3E900020E4A96
:1020F80000230B6049F64043D2E90041001BB0FBC6
:10210800F3F043431B1941F10001C2E9003100F02B
:10211800A1FEFEF75DFBBDE819408546704700BF8C
:10212800A403002480000024780000242DE9F04155
:10213800DFF8E08099B1421C0BD14FF0E02213691F
:1021480023F0010313614FF07F43C8F80030BDE866
:10215800F081D8F80060012807DC00270BE0431C59
:10216800D8F80060F7D14FF4D17040F2A313984229
:10217800A8BF1846471EEFF31185102383F3128872
:10218800BFF36F8FFFF760FF234C4FF0E02399698F
:10219800D4E9002380184FF0000243F10003C4E99A
:1021A80000031E4B1A601E4B1A68831A2ED449F678
:1021B800404C0CFB073303F51C433F33B3FBFCF7E0
:1021C800131A40F6C4120CFB0733934238BF134668
:1021D800144A934228BF1346C8F800304FF0E02253
:1021E800013B90695361002381429361A1EB000395
:1021F800D4E9001238BF9B195B1842F10002C4E908
:10220800003285F31188BFF36F8FA0E740F6C4133F
:10221800E2E700BFA803002480000024A4030024F0
:10222800780000248020FF0038B5EFF311851023D3
:1022380083F31288BFF36F8F084B1C68084B1B6829
:10224800E41AFFF701FF85F31188BFF36F8F49F692
:1022580040432044B0FBF3F038BD00BF80000024A9
:1022680078000024002854D02B4A936903F4404393
:10227800B3F5404F1FD1294B294A0344934242D911
:10228800284B294A034493423FD9284B984240D8C7
:102298000020274A136823F00F03034313601368D1
:1022A80003F00F03984232D0136803F00F03C01AEB
:1022B80018BF01207047936903F44043B3F5004FFA
:1022C8000ED11C4A1C4B02449A421AD91B4A02449A
:1022D8009A4218D91A4A02449A4216D90133D5E7C4
:1022E800184A194B02449A4209D9184A02449A4298
:1022F80007D9174A02449A4205D9164AEBE704203F
:10230800C7E70320C5E70220C3E70120C1E703466A
:10231800CDE70120704700BF00480258FFC4A7F767
:10232800FFE0F5057FE2D3FB7F1D2C04801D2C0404
:1023380000200052BF4C2AF6BF3B47037F8871F943
:102348003FC4B8FCFF6A45F53FA5AE023F10F4F75D
:102358007FB5A2FABF5A51FD38B5EFF311851023A6
:1023680083F31288BFF36F8F064B9C6801F0F8FB6C
:1023780085F31188BFF36F8F2046BDE83840FEF71C
:1023880059BC00BFAC03002438B50A4B53F82040B1
:10239800013053F82050A54200D838BD606830B1EC
:1023A800037FDB0701D401F0DEFB0834F3E7236881
:1023B8009847FAE79C4700082A4B0122032070B58A
:1023C800294C86B0294D1A70FFF7DEFF00F0BAFDE0
:1023D8000420FFF7D9FF26463034AE4210D3224CF2
:1023E80000F03EFA224EAC4226D300F04DFAFEF73A
:1023F800B9F8204A137B23F00103137306B070BDAC
:1024080054F80C3C059354F8103C049354F8143CCD
:10241800039354F8183C029354F81C3C019354F865
:10242800203C009354E90A2354E90C0100F0CCF84D
:1024380054F8303C5E65CEE7D4E90A23B3F1FF3F98
:1024480008BFB2F1FF3F05D052EA0301206803D16B
:1024580000F0D6FA3034C6E73146183000F06AFC8E
:10246800F8E700BFD9030024544500085445000884
:10247800373C00080801002403480021034A08B536
:10248800121A01F087FB08BD78000024DC03002441
:1024980070B5002386B00122144E01930446144DF2
:1024A80006EBC0161349CDE904230F22CDE9023209
:1024B80014234FF4A07203FB00554FF4C0700E4B69
:1024C80000FB04113046009500F07EF8737B0B4A40
:1024D80023F00403EE602C7473734FF4046304FB5D
:1024E800033313446B6006B070BD00BF880000243E
:1024F800AC030024400C0024A53B00080004002481
:10250800BFB50020FFF740FF274B83F30888274D0E
:102518000024F023264F85F82230EC772C766C7651
:10252800AC7685F820406B6A43F4E0236B62FEF7D3
:1025380051FBFEF76FFC4FF0FF33AB62EB62FEF727
:102548002FFD1C4DFEF78AFC1B4800F08BF801F0AC
:10255800F3FAFEF7BFF80120FFF716FF0220FFF796
:1025680013FF00F0C5F9154B15494FF480625D6102
:102578002846144B009405930123CDE90144CDE985
:1025880003433B4600F020F86A7B0646284622F0C3
:1025980004026A7301F01FFB2046FFF779FF3A46F1
:1025A80031462846FEF718FC400C002400ED00E0F8
:1025B800C12300080801002488010024AC0300247A
:1025C800C00D00241D4D000807322DE9F04322F00C
:1025D800070285B00E461F46109900F158037F3256
:1025E80004460173042122F03F0206F140094173B9
:1025F8003F2AA2F14008C0E916334FF00003836078
:102608000F98E373A073C4E9063305D883F31188E0
:10261800BFF36F8F084602DFB51820462946FEF73C
:10262800B7F807300E9B314620F00700C4E9189828
:10263800A0662D1A029320460D9B2A4601930C9BF7
:1026480000933B46FEF79CFB00236365044B9B68A5
:1026580003B1DB6E2846E36605B0BDE8F08300BF32
:10266800AC03002440F2011383810023C0E918332E
:10267800C366014B98607047AC030024094A6FF0A9
:102688000A0193689967084958674B6843F0805373
:102698004B60002383F31188BFF36F8F9368986FA3
:1026A800704700BFAC03002400ED00E070B590F95E
:1026B8000D20437B002A36DBD90634D11B4C63F04E
:1026C8007F0322464373E16952F8183F934207D1CA
:1026D800C0E900210860E06111E09942F8D01B6868
:1026E800002BF5D090F90E5093F90E60B542F4D056
:1026F800AE42F2DD5968C0E9003108605860A5694A
:10270800954200D005B9E568A3685A7BD20604D182
:10271800DA897F2A01D9AA6932B1AB4202D02846A8
:1027280000F066FA656170BD6361FCE7AC030024E4
:1027380038B590F90D200146437B002A04DA03F0EE
:102748007F03437301F035FA0D4D2A46AB6852F802
:10275800184F944200D004B9EC688B4207D05A7BDA
:10276800D20604D1DA897F2A01D9A2692AB1A34203
:1027780002D0204600F03CFA23466B6138BD00BF0A
:10278800AC03002470B590F90D200146437B002A64
:1027980004DA03F07F03437301F00BFA4B7B1C4C04
:1027A80063F07F0322464B7352F8183FE069934267
:1027B80007D1C1E900200160E16111E09842F8D039
:1027C8001B68002BF5D091F90E5093F90E60B542B5
:1027D800F4D0AE42F2DD5868C1E9003001605960BA
:1027E800A569A368954200D005B9E5688B4207D072
:1027F8005A7BD20604D1DA897F2A01D9AA692AB17B
:10280800AB4202D0284600F0F3F92B46636170BD55
:10281800AC03002449B9EFF3058030B9054B5A6978
:102828009B689A4201D0FFF729BF81F31188BFF353
:102838006F8F7047AC030024034648B9EFF3058255
:1028480032B9064A51699268914201D0FFF716BF22
:1028580083F31188BFF36F8F704700BFAC03002468
:10286800EFF31181102383F31288BFF36F8F054BA9
:102878009A68D37B013BD37381F31188BFF36F8FC1
:10288800704700BFAC03002470B5EFF31186102326
:1028980083F31288BFF36F8F144DAB68DA7B013274
:1028A800DA732A4652F8184F944200D004B9EC68FB
:1028B8005A7BD20604D1DA897F2A01D9A2692AB1C2
:1028C800A34202D0204600F093F923466B6186F3B9
:1028D8001188BFF36F8FEFF31180102383F31288F1
:1028E800BFF36F8FBDE87040FFF7A6BFAC030024AD
:1028F800024B03F11802C3E906227047AC03002417
:1029080070B5EFF31186102383F31288BFF36F8F2E
:102918001B4CA168E0690B68814214BF1A4600226B
:1029280049680B605960A368E1692AB9154AC3E987
:1029380000210B60E3610CE093F90E0092F90E5050
:10294800A84218D0854216DD5168C3E900210B6002
:102958005360A5690B4B9D4200D005B9E568A36893
:102968009D4202D0284600F043F930466561BDE833
:102978007040FFF783BE8A42D8D01268D5E700BFFF
:10298800AC030024C4030024F8B550EA010306464A
:102998000C4603D1FFF7B4FF0020F8BDEFF3118711
:1029A800102383F31288BFF36F8F124D124BA86860
:1029B8001860FFF7BDFEA868234632460F49183055
:1029C80000F0B8F9AA6804463846537B43F004037C
:1029D8005373FFF753FEAB68D3E90A23B3F1004FF3
:1029E80008BF002AD8D101F08DF9201A20EAE0703A
:1029F800D3E700BFAC030024CC030024373C000815
:102A080038B50446EFF31185102383F31288BFF31A
:102A18006F8F437B5B070FD5183001F04BF9637B51
:102A2800204623F004036373FFF740FE2946054858
:102A3800BDE83840FFF7EEBE85F31188BFF36F8F0E
:102A480038BD00BFDA030024014B9868704700BF07
:102A5800AC0300242DE9F8430446077BEFF3118506
:102A6800102383F31288BFF36F8F437B190705D5B3
:102A780085F31188BFF36F8FBDE8F883D90943F058
:102A880008025DD14273A36813B1204601F099F89A
:102A980004F1180004F1580801F00CF9A66DB045CE
:102AA80011D04FF0000976B1304601F08AF806F1EE
:102AB800180001F0FFF83046C6F87890FFF7F6FDE9
:102AC800A66DB045EFD1DFF8C080D8F808309C4239
:102AD8003ED1EFF30589B9F1000918BF4FF001099C
:102AE800D8F81860294A964200D00EB9D8F80C6078
:102AF800B34202D0304600F07BF82046C8F8146094
:102B080000F095FDB9F1000F02D02148FFF7AAFDAA
:102B1800D8F808309C4231D1EFF3058373BB227B90
:102B2800D20718D42846FFF7A9FDFB07A4D5002330
:102B380083F31188BFF36F8F0423184602DF9BE7E6
:102B480003F07F0343F00803437301F032F89AE778
:102B58004FF00009C4E785F31188BFF36F8F83F343
:102B68001188BFF36F8F0423184602DFEFF311803B
:102B7800102383F31288BFF36F8FD4E785F311888E
:102B8800BFF36F8FD1E700BFAC030024C403002458
:102B980088010024044B0122C01A044BC01058437A
:102BA800034B1A54704700BF08020024ABAAAAAA14
:102BB800DA030024C3897F2B12D80A4B1B6863B140
:102BC800094B90F90E201B689A4209DB437BDB0610
:102BD80006D1064BC31A18BF012303F00100704742
:102BE8000023FAE728000024D003002488000024EA
:102BF8000E4B70B51E7C05460D4C06EB460304EBE8
:102C0800C304204601F056F80A4B002228469A557C
:102C1800FFF7D0FF48B1084B204608491A68013A27
:102C2800BDE87040D31700F085B870BDAC03002430
:102C380008020024DA030024280000249D2B000841
:102C480038B5EFF31185102383F31288BFF36F8F24
:102C5800104B114A9C681068A04206D1FFF7C8FFC4
:102C680085F31188BFF36F8F38BD00211B7C11607D
:102C78000A4AD35C002BF3D02046FFF79BFF0028BD
:102C8800EED0637BDB0602D12046FFF77BFD2046B2
:102C9800E4E700BFAC030024CC030024DA030024DB
:102CA8000748084A0849121A08B500F075FF07488E
:102CB800074A0849121ABDE8084000F06DBF00BF76
:102CC80000000024740000246C4D0008000000245B
:102CD800000000246C4D0008024B1868984208BF99
:102CE800002070472C000024034B1B680BB9FFF72A
:102CF8009BBA0020704700BFD403002430B570B1E0
:102D08000B4B5B6898420AD0036843B1D3E90421AE
:102D1800D0E90445121941EB0501C3E90421D0E9C2
:102D2800003213605A600023C0E9003330BD00BF91
:102D38002C000024B3F1FF3F08BFB2F1FF3F2DE99B
:102D4800F84F0446994615461F467AD08160EFF33E
:102D58001188102383F31288BFF36F8FB9F1000F26
:102D6800DFF8E4A020DBFFF7BFFF0135064649F195
:102D780000092D18DAE9002749EBE0734FF0010943
:102D8800C4E90453AD1843EB0707FFF7A5FFDFF8C5
:102D9800BCE00346DEF804A0EBB9C4E900EACAF8CF
:102DA8000040CEF8044028E0DAE900126FF0010391
:102DB8005B1A4FF0FF3161EB02025B1B62EB090209
:102DC800012B4FF0000972F10001BCBF0123002262
:102DD800C0E90432D9E7D3E9041CD4E904208A42C3
:102DE80070EB0C0B24DA891A5A686CEB0000C3E903
:102DF8000410C4E9003214605C60FFF76DFF844280
:102E08000ED1134B1B685BB9B9F1000F02D1FFF764
:102E18006BFF0646304600F036FF0021FFF786F9C3
:102E280088F31188BFF36F8F28463946BDE8F88FBD
:102E3800521A60EB0C009A45C4E90420ADD01B6817
:102E4800AAE700252F46EFE7200200242C000024E3
:102E5800D40300242DE9F047EFF31185102383F301
:102E68001288BFF36F8FDFF8A4900026DFF8A080E8
:102E78000027C9F80000FFF72FFFD9F80030D8E97C
:102E880000ECD91750B1D0E90442A34271EB020A11
:102E98001CDAE41A62EB0102C0E9044213EB0E03E8
:102EA8004FF000044CEB01012046C9F80040C8E986
:102EB800003100F0E8FE2146FFF738F985F3118864
:102EC800BFF36F8FBDE8F047FFF7BABE14EB0E02F1
:102ED8004CEBE473C0E90467C8E90023FFF70EFF71
:102EE80085F31188BFF36F8F83689847EFF31185D7
:102EF800102383F31288BFF36F8FD9F800301B1BA0
:102F0800C9F80030FFF7E8FEB7E700BFD403002494
:102F18002002002410B5EFF31184102383F31288E4
:102F2800BFF36F8FFFF7E0FE054A0346D2E90001C1
:102F3800181841EBE37184F31188BFF36F8F10BD4C
:102F480020020024014800F055BB00BF224D0008B4
:102F58000FB407B5064B04AA186852F8041B01926F
:102F680000F008F803B05DF804EB04B0704700BF48
:102F7800284600082DE9F04F8DB043680293837806
:102F880015469A07804640F10D8100240E78002EE0
:102F980000F00A81252E0BD04B1C03930134029BB1
:102FA8004146304698470028C0F2F6800399EDE77D
:102FB8004E788B1C252E0393F0D00027B946BB46CC
:102FC800BBF11F0F38D8A6F12003102B0AD8DFE871
:102FD80003F02A0909300909092109090928092DD5
:102FE80009091F00A6F13003092B33D92A2E37D13E
:102FF8001BF0400F55F8043B40F08280002BA7BF20
:103008004BF0200B9946C3F100094BF0280B01E067
:103018004BF0010B039B13F8016B0393002ECFD1E8
:1030280030E04BF0020B4BF0040BF3E74BF0080BCE
:10303800F0E74BF0100BEDE7BBF17F0F19D8A6F1C5
:103048003003092BD2D81BF0400F03D00A2101FB13
:103058000737DFE70A2101FB09394BF0200BD9E7D5
:103068002E2E06D11BF0400F40F09E804BF0400BF7
:10307800D0E76C2E31D02BD8682E36D06A2E3CD0B3
:103088004C2E3AD0002F46F02003B8BF2BF0400258
:10309800A3F16501BCBF1FFA82FB0027022901D9F1
:1030A800612B2FD1073525F00705DFF8ACA20835CD
:1030B80007271BF0080F66D00AEB070B56465E453C
:1030C80063D1A4EB0A0A06EB0A02A9EB07096FE130
:1030D800742E9FD07A2E9DD0D4E71BF0800F18BF96
:1030E8004BF4007B4BF0800B94E71BF4807F18BFF8
:1030F8004BF4007B4BF4807B8CE74BF4207B89E717
:103108001F4687E7A6F16301122900F2F080DFE885
:1031180011F013004F00EE00EE00EE00EE004F003D
:10312800EE00EE00EE00EE00EE00FE00E900EE001C
:10313800EE001B00EE00AF0055F8043B8DF8183088
:1031480001270DF1180AB4E755F804AB834BBAF11F
:10315800000F08BF9A461BF0400F14BF39464FF0C6
:10316800FF31504600F0E8FD0746A2E7029B4146C2
:103178002020984700280FDB013EB742F6D34C4485
:10318800A41BB14698E74E46F7E716F8010B029BD9
:1031980041469847002892DA98F8023043F0040331
:1031A80088F802304FF0FF3420460DB0BDE8F08FAC
:1031B8001BF0800F34D01BF4007F2CD0073525F08E
:1031C8000705AA4669685AF8080B2BF0100500296C
:1031D800ADB237DA404261EB410145F480650DF14B
:1031E800180B0A235A4600F0B3FDA0EB0B0301931A
:1031F8006B0662D5019B25F001019F4289B240F31D
:10320800A180002E00F0998015F0100240F09C80FB
:10321800BB460D4623E0AA465AF8040BC117D4E76B
:10322800AA461BF4807F5AF8041B01D10846F5E72B
:103238001BF4007F15BF48B208B241F3C01141F337
:10324800C031C2E750EA0103C9D11BF0400FC6D014
:10325800002FC4D12BF0110295B2BB46019740F262
:10326800064115EA01021CBF0BF1010B00222CE0FC
:103278002BF010021FFA82FB0A231BF0800C49D0A6
:103288001BF400711DBF073525F00705AA46AA469D
:103298001ABF5AF8080B69685AF8040B50EA010576
:1032A80045D12BF016051BF0400FADB242D0002FD0
:1032B80040D12BF0170295B2019715F0100248D0B3
:1032C800019B002E42D103F1010B29075AD4EB07C9
:1032D80006D5D9456FDD0199A9EB0B035F18CB46DD
:1032E8005B4649E04BF0100B10237826C5E7782B96
:1032F80004D1C6F1780343F01003BEE7029B4146B0
:10330800252098470028FFF647AF023447E60823F0
:103318000026B2E7AA461BF480715AF8040BBDD008
:103328001BF400711ABFC0B2614680B2B6E72BF039
:10333800060295B20DF1180B54E725F01105ADB250
:10334800BB468CE70D46B8E73B460D4603F1020B3A
:10335800BBE7DDF804B082E7644D00085D4D000866
:10336800CDE904324146029B202098470028FFF609
:1033780013AF049B059A01339945F1DCA4EB0B01CB
:10338800CC189B460AB3029B414630209847002838
:10339800FFF602AF8EB901342744019B391B9942CD
:1033A80024DC1D465DBB019AA9EB0B092244554656
:1033B8001446914435E0019F92E702344146304675
:1033C800029B98470028E7DAE6E640F206410D42FC
:1033D800E2D015F0020F14BF2B20202015F4806FC7
:1033E80004F10104414618BF2D20E9E7029B41463C
:1033F80030209847002804F10104CEDACCE606AB69
:10340800013D4146585D029B98470028CADAC3E649
:10341800029B414620209847002804F10104FFF64A
:10342800BBAEA9EB0403002BF2DCBFE57047836851
:1034380000EBC101B3F5004F2CBF51F8220031F861
:103448001200704700EBC1018068B0F5004F2CBF37
:1034580041F8223021F812307047012208B5FFF7F1
:10346800E6FFD04008BD836800EBC101B3F5004F0B
:1034780008D34B681AB143F001034B60704723F03F
:103488000103FAE74B881AB143F001034B807047F8
:1034980023F00103FAE753000122FFF7D3BFB0F589
:1034A800004F01F1010034BF042308230833A0EBC7
:1034B800D300B0FA80F0C0F11F0070472DE9F04149
:1034C80086680D460446FFF7C8FFB6F5004F01466B
:1034D80001D3012832D03046FFF7E1FF04EB800129
:1034E8000E6996B90122E3688240204613430222FE
:1034F800E3602B460D612946FFF7A4FF0322294606
:103508002046BDE8F041FFF79DBF02223146204624
:10351800FFF78DFF2946034607462046FFF792FF2F
:103528000322334629462046FFF78CFF39462B46AF
:103538002046FFF787FF02223146E1E7BDE8F08128
:10354800B2F5802F2CBF08230423D21A2DE9F041AD
:103558008C18CD1D002625F0070524F00704641BF0
:103568000560EE60E40821462046AC60FFF797FF4F
:10357800421D013031464FEA820205F1100002F186
:103588000707A2F11002B8BF3246FF0800F0CCFBD3
:1035980031463A462846FFF77EFFA4EB0708334634
:1035A800324631462846FFF74DFF2846314601226C
:1035B800FFF759FF42463946FFF76DFF3B46324653
:1035C80039462846FFF73EFF21462846FFF763FFA6
:1035D8004346324621462846FFF734FF214628460F
:1035E8000122FFF740FF3946BDE8F041FFF766BF0B
:1035F800002070470FB407B504A951F8040B0191D6
:10360800FCF7F6FF03B05DF804EB04B070477047B1
:1036180001460068FDF788B808B5FDF7B5F8BDE8BC
:103628000840FDF7D5B800210120FDF77DB86FF0FF
:103638008500704761B662B680F31188BFF36F8F5B
:10364800704772B6002383F31188BFF36F8FBFF3FF
:103658004F8F30BF62B6BFF36F8F7047202809D9EC
:10366800B0F1004F08D80138B0FA80F0C0F11F005F
:1036780040007047082070473E20704708B5FDF7A6
:1036880043FD002008BD08B5062201210020FDF7F2
:1036980061FD002206201146FDF732FB01210722B9
:1036A8000846FDF757FD002207201146FDF728FBC5
:1036B800082201210220FDF74DFD002208201146B5
:1036C800FDF71EFB092201210320FDF743FD00221F
:1036D80009201146FDF714FB0A2201210420FDF7F9
:1036E80039FD00220A201146FDF70AFB05211722A1
:1036F8000846FDF72FFD002217201146FDF700FBB5
:10370800282206210A20FDF725FD0022282011463F
:10371800FDF7F6FA002008BD01F01F0101208840DE
:1037280070474FF0B042D2F8803023EA0003C2F865
:10373800803070470D2809D843F63273C34013F020
:10374800010F14BF00206FF0850070476FF08500EF
:103758007047436800205B681B690B6070474368CB
:1037680000205B68996170474368090400205B6822
:103778009961704710B503699868F8B1884219D102
:10378800DC680868A142986000D1D8600020086011
:103798002AB19A680A60DA68996002B9D96000208B
:1037A80010E0814206D108682060D8688142EDD1D6
:1037B800DC60EBE7044600680028F2D1002AE8D173
:1037C8006FF0150010BD12F4003CF8B505460C4624
:1037D80013461DD0960714D550075DD55022D9063B
:1037E80011D542F4007203F4C061B1F5806F42D084
:1037F800B1F5C06F19D0B1F5007F18D142F0800241
:1038080015E01022EBE79F06EDD542F48062EAE767
:10381800D60305D5D00605D4C2F340129202E2E7DA
:103828003022E0E74FF40072DDE742F4C07213F48F
:1038380040372E6908D0306920FA04F1C9075FBF04
:103848000121A14001433161BCF1000F06D01803EA
:1038580014D5696801234968A3408B610023214678
:103868006868FEF723F927B9336923FA04F2D20707
:103878000CD40020F8BD42F48072D8E75903EDD586
:1038880001212846A140FFF76FFFE7E70122A24088
:1038980023EA02033361ECE76FF08500EAE770B5CD
:1038A8000B468968054611B15E680C6801B970BDA0
:1038B8008A682A4002D04B68304698471CB1236872
:1038C80021461C46F2E72346FAE7F8B51F460446A8
:1038D80040680E461546FEF7E9F8112F07D1012179
:1038E8002B0501FA06F104D563685B68996100202D
:1038F800F8BD2046FFF738FFF9E730B503681360D5
:103908000579046804EBC504A34202D36FF00100F3
:1039180030BD5C798C4201D00833F0E70020F7E72E
:103928004368C1F34B1001F01F011B68C058012305
:103938008B4003424FF0000014BF01230023137093
:10394800704710B54368C1F34B1001F01F011A68A6
:10395800012384588B4023438350002010BD10B5A9
:103968004368C1F34B14012201F01F0118688A4013
:10397800235823EA02032350002010BD38B504461B
:103988000D46FFF7DEFF29462046FFF7E8FF002037
:1039980038BDB0F5805F07D0B0F1805F09D100294C
:1039A80014BF012002207047002914BF03200420FF
:1039B8007047002914BF02200320704743681B6822
:1039C800D869DA69C0F3C000D107DA6948BF40F0A6
:1039D80002009207DA6948BF40F004005107DA692B
:1039E80048BF40F02000D20504D54FF4807240F063
:1039F80008001A62C10701D508221A62820701D598
:103A080001221A62410701D502221A62820601D5F3
:103A180004221A62704737B502690C464368106879
:103A28001D68D9688368DB687BB101AA98470028BC
:103A38000BDB2B6823F400432B6001992CB101EBBD
:103A48005401B1FBF4F189B2E96003B030BD10B59F
:103A5800436810201B68DA691206FCD5EFF311825F
:103A680080F31288BFF36F8FDC69240604D482F3D5
:103A78001188BFF36F8FEEE7996282F31188BFF365
:103A88006F8F10BD43681B68DA69100701D50822DB
:103A98001A62DA69920603D55B6A00200B707047D8
:103AA8004FF0FF30704710B5026904460B46526864
:103AB80012680A6042681268126802F4C062B2F5BD
:103AC800806F33D0A2F5C060424242411A716268E9
:103AD8001268526802F44052B2F5805F28D0B2F5FD
:103AE800405F27D0002A0CBF012203225A71626866
:103AF80012681068116800F0102001F4C061FFF727
:103B080048FF9871626800201268926802F4407257
:103B1800A2F540714A424A41DA71616809688968C8
:103B280011F4804F18BF0322DA7110BD0222CDE7CD
:103B38000022DBE70222D9E7704740B1C368587812
:103B480010F001001EBF1878B0FA80F040097047E5
:103B5800EFF31183102383F31288BFF36F8FFEE70F
:103B680008B5FFF7F5FF10B54369044633B90020DF
:103B7800E268537843F00103537010BD984700285A
:103B8800F5D00028E368B8BF4042FF28A8BFFF204F
:103B98001870EDE700F0C8B800F0B8B8102408B500
:103BA800EFF3118384F31288BFF36F8FFFF749FD9A
:103BB800F6E7D0E9003213605A600023C0E9003309
:103BC800704708B5FFF7F5FF437B23F00203437303
:103BD8000023836008BD10B5EFF31184102383F32D
:103BE8001288BFF36F8FFEF761FD84F31188BFF36E
:103BF8006F8F10BD014610B5EFF31184102383F3C6
:103C08001288BFF36F8F437B13F0280F0AD18368A4
:103C18000BB1FFF7D6FF4B7B084623F004034B7329
:103C2800FEF744FD84F31188BFF36F8F10BD0121A7
:103C38001838FFF7DFBF38B504460D46FEF7A4FE77
:103C48000346B5F1FF3F08BFB4F1FF3F204614D04B
:103C580013F109004FEAE37141F100010A2871F1FB
:103C680000030BD36FF00A0383424FF004038B4128
:103C780006D30A220023FCF70BFB38BD0020FCE723
:103C88006FF00040F9E708B50246FFF725F870B174
:103C9800D0E904319B1A61EBE272B3F1004F72F183
:103CA800000104DA002AACBF1846002008BD6FF0F6
:103CB8000040FBE7024638B5EFF31185102383F384
:103CC8001288BFF36F8F0368CBB1FFF705F804467E
:103CD8001046FFF713F800224FF000438442C0E972
:103CE800042306D1FFF700F8FFF7CDFF0021FEF708
:103CF8001DFA002085F31188BFF36F8F38BD6FF070
:103D08001500F7E708B5FFF705F908BD0A44914221
:103D180000F1FF3300D1704710B511F8014B03F8DB
:103D2800014F9142F9D110BD02440346934200D19C
:103D3800704703F8011BF9E710B5024601448A42AF
:103D4800134603D01C780132002CF8D1181A10BD84
:103D5800F0B5C3F137070446FFB203F01F0310465E
:103D6800082BE6B233D0102B3ED06508A40844EAED
:103D7800817445EAC1752D194FEA910242EB51024F
:103D8800290941EA02716D1842EB1212290A41EA27
:103D980002616D1842EB1222290C41EA02416D18AA
:103DA80042EB1242AD1842F10002EC0844EA4274B8
:103DB800D10804EB8402A6EB4205EDB2092D0CD91B
:103DC8000134A5F10A0541F10001EDB212E0E40861
:103DD80044EA417406F00705C908303554EA01027F
:103DE80000F8015BBCD1F0BD240944EA017406F077
:103DF8000F050909092D84BFED19EDB2EDE70000A3
:0C3E0800014800687047000028020024F8
:083E1400B8C4FF7F01000000AB
:103E1C0000000000C43E00085D0600080000000021
:103E2C0000000000E43E00080000000024400008F0
:103E3C0000000000243F000800000000643F000860
:103E4C0000000000043F000800000000644000086F
:103E5C00000000004440000800000000044000087E
:103E6C0000000000E43F000800000000C43F000810
:103E7C0000000000A43F000800000000843F000880
:103E8C0000000000443F00088F36000800000000CE
:103E9C0000000000844000083519000800000000F4
:103EAC009D200008000000003911000800000000EF
:083EBC00790600080000000077
:103EC400554C0008000000008845000856000024F6
:103ED4000000000059160008000000000000000067
:103EE400FC4C00084C470008784500086E0000248C
:103EF40000000000000000000000000000000000BE
:103F0400374C0008000000000000000054000024AA
:103F140000000000B51300080000000000000000CD
:103F2400624C00082C460008544500085800002440
:103F3400C8020024751B00080000000000000000F7
:103F4400704C000840460008544500085A000024FC
:103F5400DC020024751B00080000000000000000C3
:103F64007E4C000854460008544500085C000024B8
:103F7400F0020024751B000800000000000000008F
:103F84008C4C000868460008544500085E00002474
:103F940004030024751B000800000000000000005A
:103FA4009A4C00087C460008544500086000002430
:103FB40018030024751B0008000000000000000026
:103FC400A84C0008904600085445000862000024EC
:103FD4002C030024751B00080000000000000000F2
:103FE400B64C0008A44600085445000864000024A8
:103FF40040030024751B00080000000000000000BE
:10400400C44C0008B8460008544500086600002463
:1040140054030024751B0008000000000000000089
:10402400D24C0008CC46000854450008680000241F
:1040340068030024751B0008000000000000000055
:10404400E04C0008E0460008544500086A000024DB
:104054007C030024751B0008000000000000000021
:10406400EE4C0008F4460008544500086C00002497
:1040740090030024751B00080000000000000000ED
:104084000D4D000850470008A445000870000024A6
:1040940014000024651D000800000000000000005A
:1040A400000000002F360008000000002F36000832
:1040B400000000002F360008000000002F36000822
:1040C400000000002F360008000000002F36000812
:1040D400354C000875110008334C000875110008B0
:1040E400314C0008751100082F4C000875110008A8
:1040F4002D4C000875110008000000002F36000840
:10410400000000002F360008000000002F360008D1
:10411400000000002F360008000000002F360008C1
:10412400000000002F360008000000002F360008B1
:10413400000000002F360008000000002F360008A1
:10414400000000002F360008000000002F36000891
:10415400000000002F3600082B4C000875110008E1
:10416400000000002F360008000000002F36000871
:10417400000000002F360008000000002F36000861
:10418400000000002F360008000000002F36000851
:10419400000000002F360008000000002F36000841
:1041A400000000002F360008000000002F36000831
:1041B400000000002F360008000000002F36000821
:1041C400000000002F360008000000002F36000811
:1041D400000000002F360008000000002F36000801
:1041E400294C000875110008000000002F36000853
:1041F400000000002F360008000000002F360008E1
:10420400000000002F360008000000002F360008D0
:10421400000000002F360008000000002F360008C0
:10422400000000002F360008000000002F360008B0
:10423400000000002F360008000000002F360008A0
:10424400000000002F360008000000002F36000890
:10425400000000002F360008000000002F36000880
:10426400000000002F360008000000002F36000870
:10427400000000002F360008000000002F36000860
:10428400000000002F360008000000002F36000850
:10429400000000002F360008000000002F36000840
:1042A400000000002F360008000000002F36000830
:1042B400000000002F360008000000002F36000820
:1042C400000000002F360008000000002F36000810
:1042D400000000002F360008000000002F36000800
:1042E400000000002F360008000000002F360008F0
:1042F400000000002F360008000000002F360008E0
:10430400000000002F360008000000002F360008CF
:10431400000000002F360008000000002F360008BF
:10432400000000002F360008000000002F360008AF
:10433400000000002F360008000000002F3600089F
:10434400000000002F360008000000002F3600088F
:10435400000000002F360008000000002F3600087F
:10436400000000002F360008000000002F3600086F
:10437400000000002F360008000000002F3600085F
:10438400000000002F360008000000002F3600084F
:10439400000000002F360008000000002F3600083F
:1043A400000000002F360008000000002F3600082F
:1043B400000000002F360008000000002F3600081F
:1043C400000000002F360008000000002F3600080F
:1043D400000000002F360008000000002F360008FF
:1043E400000000002F360008000000002F360008EF
:1043F400000000002F360008000000002F360008DF
:10440400000000002F360008000000002F360008CE
:10441400000000002F360008000000002F360008BE
:10442400000000002F360008000000002F360008AE
:10443400000000002F360008000000002F3600089E
:10444400000000002F360008000000002F3600088E
:10445400000000002F360008000000002F3600087E
:10446400000000002F360008000000002F3600086E
:10447400000000002F360008000000002F3600085E
:10448400000000002F360008000000002F3600084E
:10449400000000002F360008000000002F3600083E
:1044A400000000002F360008000000002F3600082E
:1044B400000000002F360008000000002F3600081E
:1044C400000000002F360008000000002F3600080E
:1044D400000000002F360008000000002F360008FE
:1044E400000000002F360008000000002F360008EE
:1044F400000000002F360008000000002F360008DE
:10450400000000002F360008000000002F360008CD
:10451400000000002F360008000000002F360008BD
:10452400000000002F360008000000002F360008AD
:10453400000000002F360008000000002F3600089D
:10454400000000002F360008000000002F3600088D
:10455400CF3700085B3700088D1A0008673700085A
:1045640071370008691A0008851900087D370008AA
:044574000000000043
:10457800293900084B3900086739000885390008CF
:1045880001160008BD15000800000000A914000865
:0C4598000000000000000000CD1800082A
:1045A4008D3A0008573A0008C5390008E51E00088E
:0445B400AF3A000812
:1045B80005000000C045000800000008D0470008BA
:1045C8002600020600000024D647000824000B112C
:1045D8000000F01FDB47000824000411000004302D
:1045E800E24700081A00081100000430EF470008ED
:1045F8000E000401FD4700080000009000000004C0
:10460800000000010D480008000000D00000000272
:1046180000001000000000240000000000000B064D
:1046280004000024FFFF0000002802580A000000D0
:10463800E000000000040000FFFF00000024025812
:1046480009000000E000000000020000FFFF000079
:104658000020025808000000E000000000010000EF
:10466800FFFF0000001C025807000000E0000000E7
:1046780080000000FFFF000000180258060000003C
:10468800E000000040000000FFFF00000014025896
:1046980005000000E000000020000000FFFF00000F
:1046A8000010025804000000E000000010000000A4
:1046B800FFFF0000000C025803000000E0000000AB
:1046C80008000000FFFF0000000802580200000078
:1046D800E000000004000000FFFF00000004025892
:1046E80001000000E000000002000000FFFF0000E1
:1046F8000000025800000000E00000000100000077
:1047080064400008444000082440000804400008B1
:10471800E43F0008C43F0008A43F0008843F0008A5
:10472800643F0008443F0008243F000800000000E0
:104738000000000000000000000000000000000071
:10474800000000000044025800100140E43E000848
:104758000413000074470008010000000000000076
:1047680000000000000000007C470008F000000086
:104778001000000084470008010000008C47000872
:1047880002000000270100000002000047010000AD
:10479800000000001C3E00081C3E0008AC3E00085B
:1047A800B43E0008C43E0008C43E000800100000E3
:1047B80000304F4E004F4646004C4544207374610C
:1047C80074653A2025730A00464C415348005352F9
:1047D800414D0053595354454D005352414D5F4587
:1047E80054485F425546005352414D5F4554485F17
:1047F80044455343006D656D6F72794039303030F0
:104808003030303000736472616D40643030303065
:104818003030300072302F61313A20203078253026
:104828003878202072312F61323A202030782530B4
:104838003878202072322F61333A202030782530A2
:1048480038780A0072332F61343A202030782530C6
:104858003878207231322F69703A2020307825302C
:104868003878207231342F6C723A20203078253015
:1048780038780A0020787073723A20203078253012
:1048880038780A004661756C74696E6720696E73C2
:104898007472756374696F6E206164647265737392
:1048A80020287231352F7063293A20307825303826
:1048B800780A00556E68616E646C656420495251CF
:1048C8006E3A2025640A002A2A2A2A2A204D5055A1
:1048D800204641554C54202A2A2A2A2A0A002020F8
:1048E800537461636B696E67206572726F722028FA
:1048F800636F6E746578742061726561206D696795
:104908006874206265206E6F742076616C69642912
:104918000A002020556E737461636B696E672065A9
:1049280072726F720A0020204461746120416363CF
:104938006573732056696F6C6174696F6E0A002025
:10494800204D4D46415220416464726573733A208C
:10495800307825780A002020496E73747275637464
:10496800696F6E204163636573732056696F6C616C
:1049780074696F6E0A002020466C6F6174696E67F7
:104988002D706F696E74206C617A7920737461740C
:104998006520707265736572766174696F6E2065E3
:1049A80072726F720A002A2A2A2A2A20555341470E
:1049B80045204641554C54202A2A2A2A2A0A0020F2
:1049C800204469766973696F6E206279207A65720E
:1049D8006F0A002020556E616C69676E6564206DF2
:1049E800656D6F7279206163636573730A002020B7
:1049F8004E6F20636F70726F636573736F72206997
:104A08006E737472756374696F6E730A002020493F
:104A18006C6C6567616C206C6F6164206F66204503
:104A280058435F52455455524E20696E746F20505A
:104A3800430A002020496C6C6567616C20757365BA
:104A4800206F662074686520455053520A00202064
:104A5800417474656D707420746F20657865637532
:104A6800746520756E646566696E656420696E7329
:104A78007472756374696F6E0A002A2A2A2A2A20BA
:104A8800425553204641554C54202A2A2A2A2A0A9C
:104A9800002020537461636B696E67206572726FC2
:104AA800720A00202050726563697365206461741E
:104AB8006120627573206572726F720A002020424D
:104AC80046415220416464726573733A20307825F8
:104AD800780A002020496D707265636973652064E7
:104AE80061746120627573206572726F720A0020AA
:104AF80020496E737472756374696F6E2062757382
:104B0800206572726F720A00526573657276656409
:104B180020457863657074696F6E2028005370753E
:104B280072696F757320696E74657272757074201E
:104B3800284952512000535053454C20696E207427
:104B48006872656164206D6F646520646F657320A9
:104B58006E6F7420696E6469636174652050535088
:104B68000A002A2A2A2A2A20484152442046415526
:104B78004C54202A2A2A2A2A0A0020204275732007
:104B88006661756C74206F6E20766563746F722031
:104B98007461626C6520726561640A002020446556
:104BA800627567206576656E740A00202046617517
:104BB8006C7420657363616C6174696F6E2028730F
:104BC80065652062656C6F77290A00415243485F2A
:104BD800455843455054207769746820726561735D
:104BE8006F6E2025780A0A002A2A2A2A2A20446574
:104BF800627567206D6F6E69746F72206578636582
:104C08007074696F6E202A2A2A2A2A0A002A2A2AF8
:104C18002A2A20257320256429202A2A2A2A2A0AB2
:104C2800000A0605050401030102010101000169EA
:104C38006E746572727570742D636F6E74726F6CBA
:104C48006C65724035383030303030300072636314
:104C5800403538303234343030006770696F403551
:104C680038303232383030006770696F403538304C
:104C78003232343030006770696F40353830323244
:104C8800303030006770696F40353830323143302A
:104C980030006770696F4035383032313830300055
:104CA8006770696F403538303231343030006770A2
:104CB800696F403538303231303030006770696F95
:104CC800403538303230433030006770696F4035D6
:104CD80038303230383030006770696F40353830DE
:104CE8003230343030006770696F403538303230D8
:104CF8003030300072657365742D636F6E74726F37
:104D08006C6C65720073657269616C403430303167
:104D180031303030006D61696E002A2A2A20426FD6
:104D28006F74696E67205A6570687972204F5320D6
:104D38006275696C642076342E322E302D31333012
:104D4800372D67313639623437636533386165200A
:104D58002A2A2A0A00286E756C6C29002A666C6F4C
:044D680061742A0048
:104D6C00F93500080000000085360008000000003E
:104D7C0000000000000000001C00002400C2010024
:104D8C00000103000090D003C80000002C00002498
:104D9C002C000024FF00FF00FF00FF00FF00FF00BD
:104DAC00FF00FF00FF00FF00FF00FF00FF00FF00FF
:044DBC00FF00FF00F5
:104DC00000000000000000000000000000000000E3
:104DD00000000000000000000000000000000000D3
:044DE00015E015E0E5
:0400000508000C09DA
:00000001FF
